{
    "contractName": "DSCEngine",
    "abi": [
        {
            "inputs": [
                {
                    "internalType": "address[]",
                    "name": "tokenAddresses",
                    "type": "address[]"
                },
                {
                    "internalType": "address[]",
                    "name": "priceFeedAddress",
                    "type": "address[]"
                },
                {
                    "internalType": "address",
                    "name": "dscAddress",
                    "type": "address"
                }
            ],
            "stateMutability": "nonpayable",
            "type": "constructor"
        },
        {
            "inputs": [],
            "name": "DSCEngine_MintFailed",
            "type": "error"
        },
        {
            "inputs": [],
            "name": "DSCEngine_NotAllowedToken",
            "type": "error"
        },
        {
            "inputs": [],
            "name": "DSCEngine_TokenAddressesAndPriceFeedAddressesMustBeSameLength",
            "type": "error"
        },
        {
            "inputs": [
                {
                    "internalType": "uint256",
                    "name": "healthFactor",
                    "type": "uint256"
                }
            ],
            "name": "DSCEngine__BreaksHealthFactor",
            "type": "error"
        },
        {
            "inputs": [],
            "name": "DSCEngine__HealthFactorNotImproved",
            "type": "error"
        },
        {
            "inputs": [],
            "name": "DSCEngine__HealthFactorOk",
            "type": "error"
        },
        {
            "inputs": [],
            "name": "DSCEngine__NeedsMoreThanZero",
            "type": "error"
        },
        {
            "inputs": [],
            "name": "DSCEngine__TransferFailed",
            "type": "error"
        },
        {
            "anonymous": false,
            "inputs": [
                {
                    "indexed": true,
                    "internalType": "address",
                    "name": "user",
                    "type": "address"
                },
                {
                    "indexed": true,
                    "internalType": "address",
                    "name": "token",
                    "type": "address"
                },
                {
                    "indexed": true,
                    "internalType": "uint256",
                    "name": "amount",
                    "type": "uint256"
                }
            ],
            "name": "CollateralDeposited",
            "type": "event"
        },
        {
            "anonymous": false,
            "inputs": [
                {
                    "indexed": true,
                    "internalType": "address",
                    "name": "redeemedFrom",
                    "type": "address"
                },
                {
                    "indexed": true,
                    "internalType": "address",
                    "name": "redeemedTo",
                    "type": "address"
                },
                {
                    "indexed": true,
                    "internalType": "address",
                    "name": "token",
                    "type": "address"
                },
                {
                    "indexed": false,
                    "internalType": "uint256",
                    "name": "amount",
                    "type": "uint256"
                }
            ],
            "name": "CollateralRedeemed",
            "type": "event"
        },
        {
            "anonymous": false,
            "inputs": [
                {
                    "indexed": false,
                    "internalType": "uint256",
                    "name": "amount",
                    "type": "uint256"
                },
                {
                    "indexed": true,
                    "internalType": "address",
                    "name": "onBehalfOf",
                    "type": "address"
                },
                {
                    "indexed": true,
                    "internalType": "address",
                    "name": "dscFrom",
                    "type": "address"
                }
            ],
            "name": "DscBurned",
            "type": "event"
        },
        {
            "inputs": [
                {
                    "internalType": "uint256",
                    "name": "amountDscToBurn",
                    "type": "uint256"
                }
            ],
            "name": "burnDsc",
            "outputs": [],
            "stateMutability": "nonpayable",
            "type": "function"
        },
        {
            "inputs": [
                {
                    "internalType": "address",
                    "name": "tokenCollateralAddress",
                    "type": "address"
                },
                {
                    "internalType": "uint256",
                    "name": "amountCollateral",
                    "type": "uint256"
                }
            ],
            "name": "depositeCollateral",
            "outputs": [],
            "stateMutability": "nonpayable",
            "type": "function"
        },
        {
            "inputs": [
                {
                    "internalType": "address",
                    "name": "tokenCollateralAddress",
                    "type": "address"
                },
                {
                    "internalType": "uint256",
                    "name": "amountCollateral",
                    "type": "uint256"
                },
                {
                    "internalType": "uint256",
                    "name": "amountDscToMint",
                    "type": "uint256"
                }
            ],
            "name": "depositeCollateralAndMintDsc",
            "outputs": [],
            "stateMutability": "nonpayable",
            "type": "function"
        },
        {
            "inputs": [
                {
                    "internalType": "address",
                    "name": "user",
                    "type": "address"
                }
            ],
            "name": "getAccountCollateralValue",
            "outputs": [
                {
                    "internalType": "uint256",
                    "name": "toalCollateralValueInUsd",
                    "type": "uint256"
                }
            ],
            "stateMutability": "view",
            "type": "function"
        },
        {
            "inputs": [
                {
                    "internalType": "address",
                    "name": "user",
                    "type": "address"
                }
            ],
            "name": "getAccountInformation",
            "outputs": [
                {
                    "internalType": "uint256",
                    "name": "totalDscMinted",
                    "type": "uint256"
                },
                {
                    "internalType": "uint256",
                    "name": "collateralValueInUsd",
                    "type": "uint256"
                }
            ],
            "stateMutability": "view",
            "type": "function"
        },
        {
            "inputs": [
                {
                    "internalType": "address",
                    "name": "user",
                    "type": "address"
                }
            ],
            "name": "getHealthFactor",
            "outputs": [
                {
                    "internalType": "uint256",
                    "name": "",
                    "type": "uint256"
                }
            ],
            "stateMutability": "view",
            "type": "function"
        },
        {
            "inputs": [
                {
                    "internalType": "address",
                    "name": "token",
                    "type": "address"
                },
                {
                    "internalType": "uint256",
                    "name": "usdAmountInWei",
                    "type": "uint256"
                }
            ],
            "name": "getTokenAmountFromUsd",
            "outputs": [
                {
                    "internalType": "uint256",
                    "name": "",
                    "type": "uint256"
                }
            ],
            "stateMutability": "view",
            "type": "function"
        },
        {
            "inputs": [
                {
                    "internalType": "address",
                    "name": "token",
                    "type": "address"
                },
                {
                    "internalType": "uint256",
                    "name": "amount",
                    "type": "uint256"
                }
            ],
            "name": "getUsdValue",
            "outputs": [
                {
                    "internalType": "uint256",
                    "name": "",
                    "type": "uint256"
                }
            ],
            "stateMutability": "view",
            "type": "function"
        },
        {
            "inputs": [
                {
                    "internalType": "address",
                    "name": "collateral",
                    "type": "address"
                },
                {
                    "internalType": "address",
                    "name": "user",
                    "type": "address"
                },
                {
                    "internalType": "uint256",
                    "name": "debtToCover",
                    "type": "uint256"
                }
            ],
            "name": "liquidate",
            "outputs": [],
            "stateMutability": "nonpayable",
            "type": "function"
        },
        {
            "inputs": [
                {
                    "internalType": "uint256",
                    "name": "amountDscToMint",
                    "type": "uint256"
                }
            ],
            "name": "mintDsc",
            "outputs": [],
            "stateMutability": "nonpayable",
            "type": "function"
        },
        {
            "inputs": [
                {
                    "internalType": "address",
                    "name": "tokenCollateralAddress",
                    "type": "address"
                },
                {
                    "internalType": "uint256",
                    "name": "amountCollateral",
                    "type": "uint256"
                }
            ],
            "name": "redeemCollateral",
            "outputs": [],
            "stateMutability": "nonpayable",
            "type": "function"
        },
        {
            "inputs": [
                {
                    "internalType": "address",
                    "name": "tokenCollateralAddress",
                    "type": "address"
                },
                {
                    "internalType": "uint256",
                    "name": "amountCollateral",
                    "type": "uint256"
                },
                {
                    "internalType": "uint256",
                    "name": "amountDscToBurn",
                    "type": "uint256"
                }
            ],
            "name": "redeemCollateralForDsc",
            "outputs": [],
            "stateMutability": "nonpayable",
            "type": "function"
        }
    ],
    "bytecode": "60a0604052346101ae57610e2180380380610019816101b2565b92833981016060828203126101ae5781516001600160401b0381116101ae57816100449184016101eb565b602083015190916001600160401b0382116101ae5761006a6040916100719386016101eb565b93016101d7565b9160015f55815181510361019f575f5b8251811015610173576001600160a01b0361009c8284610255565b51166001600160a01b036100b08386610255565b51165f90815260016020526040902080546001600160a01b03191690911790556001600160a01b036100e28285610255565b511690600454916801000000000000000083101561015f57600183018060045583101561014b5760045f527f8a35acfbc15ff81a39ae7d344fd709f28e8600b4aa8c65c6b64bfe7fe36bd19b90920180546001600160a01b031916909217909155600101610081565b634e487b7160e01b5f52603260045260245ffd5b634e487b7160e01b5f52604160045260245ffd5b6001600160a01b038416608052604051610bb7908161026a82396080518181816101d40152610a920152f35b63de2c3d7960e01b5f5260045ffd5b5f80fd5b6040519190601f01601f191682016001600160401b0381118382101761015f57604052565b51906001600160a01b03821682036101ae57565b9080601f830112156101ae578151916001600160401b03831161015f578260051b9060208061021b8185016101b2565b8096815201928201019283116101ae57602001905b82821061023d5750505090565b6020809161024a846101d7565b815201910190610230565b805182101561014b5760209160051b01019056fe60806040526004361015610011575f80fd5b5f3560e01c806326c01303146104e65780633b991a6c146104555780637be564fc146104265780637d1a4450146104035780639acd81b3146103d5578063afea2e48146103ae578063bc1587d914610288578063c660d11214610261578063c9b7c3271461015f578063f419ea9c1461010d578063f6876608146100cc5763fe6bcd7c1461009d575f80fd5b346100c85760203660031901126100c85760206100c06100bb6105c6565b610906565b604051908152f35b5f80fd5b346100c85760203660031901126100c85760043580156100fe576100f39033903390610a45565b6100fc33610b31565b005b63cb1d3f7d60e01b5f5260045ffd5b346100c85761011b366105dc565b80156100fe5761012e9033903390610a45565b61013733610b31565b80156100fe57610150916101496108b2565b333361095e565b61015933610b31565b60015f55005b346100c85760203660031901126100c85760043580156100fe5760206101cf916101876108b2565b335f526003825260405f2061019d828254610624565b90556101a833610b31565b6040516340c10f1960e01b8152336004820152602481019190915291829081906044820190565b03815f7f00000000000000000000000000000000000000000000000000000000000000006001600160a01b03165af1908115610256575f91610227575b50156102185760015f55005b636961c56f60e11b5f5260045ffd5b610249915060203d60201161024f575b6102418183610631565b810190610667565b8161020c565b503d610237565b6040513d5f823e3d90fd5b346100c85760403660031901126100c85760206100c061027f6105c6565b6024359061080b565b346100c857610296366105dc565b9181156100fe576001600160a01b039081165f818152600160205260409020549091161561039f576103416020915f936102ce6108b2565b33855260028452604085208286528452604085206102ed828254610624565b90556040519485809483829486337ff1c0dd7e9b98bbff859029005ef89b127af049cd18df1a8d79f0b7e019911e568780a46323b872dd60e01b835233600484015230602484015260448301526064820190565b03925af1908115610256575f91610380575b50156103715760015f5580156100fe5760206101cf916101876108b2565b634dc34d1760e01b5f5260045ffd5b610399915060203d60201161024f576102418183610631565b82610353565b6368bc43a160e01b5f5260045ffd5b346100c85760403660031901126100c85760206100c06103cc6105c6565b6024359061074e565b346100c85760403660031901126100c8576103ee6105c6565b60243580156100fe57610150916101496108b2565b346100c85760203660031901126100c85760206100c06104216105c6565b61067f565b346100c85760203660031901126100c85760406104496104446105c6565b610b5e565b82519182526020820152f35b346100c85760403660031901126100c85761046e6105c6565b6024359081156100fe576001600160a01b039081165f818152600160205260409020549091161561039f576104a96020915f936102ce6108b2565b03925af1908115610256575f916104c7575b50156103715760015f55005b6104e0915060203d60201161024f576102418183610631565b816104bb565b346100c85760603660031901126100c8576104ff6105c6565b602435906001600160a01b03821682036100c8576044359182156100fe576105256108b2565b61052e81610906565b92670de0b6b3a76400008410156105b757610549818461074e565b90600a820291808304600a14811517156105a3576105859461057561057d9260646100bb960490610624565b90853361095e565b823391610a45565b11156105945761015933610b31565b6303e141b160e51b5f5260045ffd5b634e487b7160e01b5f52601160045260245ffd5b63032c072f60e41b5f5260045ffd5b600435906001600160a01b03821682036100c857565b60609060031901126100c8576004356001600160a01b03811681036100c857906024359060443590565b8115610610570490565b634e487b7160e01b5f52601260045260245ffd5b919082018092116105a357565b90601f8019910116810190811067ffffffffffffffff82111761065357604052565b634e487b7160e01b5f52604160045260245ffd5b908160209103126100c8575180151581036100c85790565b600454915f9190825b848410156106fb577f8a35acfbc15ff81a39ae7d344fd709f28e8600b4aa8c65c6b64bfe7fe36bd19b8401546001600160a01b038481165f9081526002602090815260408083209490931680835293905220546001926106f39290916106ed9161080b565b90610624565b930192610688565b9350915050565b519069ffffffffffffffffffff821682036100c857565b908160a09103126100c85761072d81610702565b9160208201519160408101519161074b608060608401519301610702565b90565b6001600160a01b039081165f9081526001602052604090819020549051633fabe5a360e21b81529160a09183916004918391165afa908115610256575f916107d7575b50670de0b6b3a7640000820291808304670de0b6b3a764000014901517156105a3576402540be4008102908082046402540be40014901517156105a35761074b91610606565b6107f9915060a03d60a011610804575b6107f18183610631565b810190610719565b50505090505f610791565b503d6107e7565b6001600160a01b039081165f9081526001602052604090819020549051633fabe5a360e21b81529160a09183916004918391165afa908115610256575f9161088e575b506402540be4008102908082046402540be40014811517156105a35782026402540be400029181159183041417156105a357670de0b6b3a7640000900490565b6108a7915060a03d60a011610804576107f18183610631565b50505090505f61084e565b60025f54146108c15760025f55565b60405162461bcd60e51b815260206004820152601f60248201527f5265656e7472616e637947756172643a207265656e7472616e742063616c6c006044820152606490fd5b61090f90610b5e565b6032810290808204603214901517156105a3576064900490670de0b6b3a7640000820291808304670de0b6b3a764000014901517156105a35761074b91610606565b919082039182116105a357565b91610a0c939160209360018060a01b031691825f526002855260405f2060018060a01b0382165f52855260405f20610997858254610951565b90556040518481526001600160a01b039182169384928416917fb292db12b8dfa23b760ee5e3bd1d3be184cd8f0eeeacd27ce120d4de4e4721f6908890a460405163a9059cbb60e01b81526001600160a01b0390911660048201526024810192909252909283919082905f9082906044820190565b03925af1908115610256575f91610a26575b501561037157565b610a3f915060203d60201161024f576102418183610631565b5f610a1e565b9060018060a01b03165f52600360205260405f20610a64828254610951565b90556040516323b872dd60e01b81526001600160a01b039283166004820152306024820152604481018290527f0000000000000000000000000000000000000000000000000000000000000000909216916020816064815f875af1908115610256575f91610b12575b501561037157813b156100c8575f91602483926040519485938492630852cd8d60e31b845260048401525af1801561025657610b065750565b5f610b1091610631565b565b610b2b915060203d60201161024f576102418183610631565b5f610acd565b610b3a90610906565b670de0b6b3a76400008110610b4c5750565b63e580cc6160e01b5f5260045260245ffd5b6001600160a01b0381165f90815260036020526040902054919061074b9061067f56fea26469706673582212201b3dc04ab587ebafc1f17dd86a4e54d88dce121270ef98140e77bcfe0c81a0f764736f6c63430008210033",
    "sourcePath": "/Users/sammedsbetadur/Desktop/testing/learn-security/stablecoin-defi/src/DSCEngin.sol",
    "compiler": {
        "name": "solc",
        "version": "0.8.33+commit.64118f21"
    },
    "functionHashes": {
        "burnDsc(uint256)": "f6876608",
        "depositeCollateral(address,uint256)": "3b991a6c",
        "depositeCollateralAndMintDsc(address,uint256,uint256)": "bc1587d9",
        "getAccountCollateralValue(address)": "7d1a4450",
        "getAccountInformation(address)": "7be564fc",
        "getHealthFactor(address)": "fe6bcd7c",
        "getTokenAmountFromUsd(address,uint256)": "afea2e48",
        "getUsdValue(address,uint256)": "c660d112",
        "liquidate(address,address,uint256)": "26c01303",
        "mintDsc(uint256)": "c9b7c327",
        "redeemCollateral(address,uint256)": "9acd81b3",
        "redeemCollateralForDsc(address,uint256,uint256)": "f419ea9c"
    },
    "gasEstimates": {
        "creation": {
            "codeDepositCost": "599800",
            "executionCost": "infinite",
            "totalCost": "infinite"
        },
        "external": {
            "burnDsc(uint256)": "infinite",
            "depositeCollateral(address,uint256)": "infinite",
            "depositeCollateralAndMintDsc(address,uint256,uint256)": "infinite",
            "getAccountCollateralValue(address)": "infinite",
            "getAccountInformation(address)": "infinite",
            "getHealthFactor(address)": "infinite",
            "getTokenAmountFromUsd(address,uint256)": "infinite",
            "getUsdValue(address,uint256)": "infinite",
            "liquidate(address,address,uint256)": "infinite",
            "mintDsc(uint256)": "infinite",
            "redeemCollateral(address,uint256)": "infinite",
            "redeemCollateralForDsc(address,uint256,uint256)": "infinite"
        },
        "internal": {
            "_burnDsc(uint256,address,address)": "infinite",
            "_getAccountInformation(address)": "infinite",
            "_healthFactor(address)": "infinite",
            "_redeemCollateral(address,address,address,uint256)": "infinite",
            "_revertIfHealthFactorIsBroken(address)": "infinite"
        }
    }
}